:0A000000021476E4FEFF227F0022C6
:10000B0002067D41056500010B0043046100000001
:10001B0059054C000000000000000000000000002B
:10002B00000000000000000000000000410532004D
:01003B0000C4
:1000430002173CE709F608DFFA8046E709F208DF02
:10005300FA803E88828C83E709F0A3DFFA8032E3DB
:1000630009F608DFFA8078E309F208DFFA8070887E
:10007300828C83E309F0A3DFFA806489828A83E0B8
:10008300A3F608DFFA805889828A83E0A3F208DFA7
:10009300FA804C80D280FA80C680D4806980F28056
:1000A30033801080A680EA809A80A880DA80E2807C
:1000B300CA803389828A83ECFAE493A3C8C582C8D1
:1000C300CCC583CCF0A3C8C582C8CCC583CCDFE93B
:1000D300DEE7800D89828A83E493A3F608DFF9ECD7
:1000E300FAA9F0EDFB2289828A83ECFAE0A3C8C562
:1000F30082C8CCC583CCF0A3C8C582C8CCC583CC89
:10010300DFEADEE880DB89828A83E493A3F208DFF7
:10011300F980CC88F0EF60010E4E60C388F0ED24C7
:1001230002B4040050B9F582EB2402B4040050AFCA
:10013300232345822390009673BB010689828A8319
:10014300E0225002E722BBFE02E32289828A83E493
:100153009322BB010CE58229F582E5833AF583E01E
:10016300225006E92582F8E622BBFE06E92582F83D
:10017300E222E58229F582E5833AF583E49322BB03
:10018300010689828A83F0225002F722BBFE01F323
:1001930022F8BB010DE58229F582E5833AF583E870
:1001A300F0225006E92582C8F622BBFE05E9258226
:1001B300C8F222BC000BBE0029EF8DF084FFADF026
:1001C30022E4CCF875F008EF2FFFEE33FEEC33FC9E
:1001D300EE9DEC984005FCEE9DFE0FD5F0E9E4CED4
:1001E300FD22EDF8F5F0EE8420D21CFEADF075F0A3
:1001F30008EF2FFFED33FD4007985006D5F0F222AC
:10020300C398FD0FD5F0EA22C5F0F8A3E028F0C5A6
:10021300F0F8E582158270021583E038F022A3F826
:10022300E0C5F025F0F0E582158270021583E0C881
:1002330038F0E822BB010A89828A83E0F5F0A3E063
:1002430022500687F009E71922BBFE07E3F5F00900
:10025300E3192289828A83E493F5F074019322BB24
:100263000110E58229F582E5833AF583E0F5F0A3F1
:10027300E0225009E92582F886F008E622BBFE0A4F
:10028300E92582F8E2F5F008E222E5832AF583E91D
:1002930093F5F0A3E99322BB010DC58229C582C55D
:1002A300833AC58302020B5011C58229F808E5F091
:1002B30026F618F5F0E58236F622BBFE11C5822933
:1002C300F808E225F0F5F0F218E23582F222F8E5BB
:1002D3008229F582E5832AF58374019325F0F5F0ED
:1002E300E4933822BB010A89828A83F0E5F0A3F004
:1002F300225006F709A7F01922BBFE06F3E5F00921
:10030300F31922F8BB0111E58229F582E5833AF559
:1003130083E8F0E5F0A3F0225009E92582C8F60846
:10032300A6F022BBFE09E92582C8F2E5F008F22215
:10033300E88FF0A4CC8BF0A42CFCE98EF0A42CFC69
:100343008AF0EDA42CFCEA8EF0A4CDA8F08BF0A4E7
:100353002DCC3825F0FDE98FF0A42CCD35F0FCEB46
:100363008EF0A4FEA9F0EB8FF0A4CFC5F02ECD390B
:10037300FEE43CFCEAA42DCE35F0FDE43CFC227502
:10038300F008758200EF2FFFEE33FECD33CDCC3373
:10039300CCC58233C5829BED9AEC99E58298400CDB
:1003A300F582EE9BFEED9AFDEC99FC0FD5F0D6E4B9
:1003B300CEFBE4CDFAE4CCF9A88222B800C1B9009F
:1003C30059BA002DEC8BF084CFCECDFCE5F0CBF900
:1003D3007818EF2FFFEE33FEED33FDEC33FCEB33F8
:1003E300FB10D703994004EB99FB0FD8E5E4F9FA26
:1003F300227818EF2FFFEE33FEED33FDEC33FCC90B
:1004030033C910D7059BE99A4007EC9BFCE99AF99D
:100413000FD8E0E4C9FAE4CCFB2275F010EF2FFF0C
:10042300EE33FEED33FDCC33CCC833C810D7079B76
:10043300EC9AE899400AED9BFDEC9AFCE899F80FD9
:10044300D5F0DAE4CDFBE4CCFAE4C8F922E8600F96
:10045300ECC313FCED13FDEE13FEEF13FFD8F122F3
:10046300BB010DE58229F582E5833AF58302061384
:100473005007E92582F8020607BBFE07E92582F843
:1004830002061FE58229F582E5833AF58302062BEE
:10049300ECF0A3EDF0A3EEF0A3EFF022A8828583A6
:1004A300F0D083D0821204B61204B61204B612043A
:1004B300B6E473E493A3C583C5F0C583C8C582C8F6
:1004C300F0A3C583C5F0C583C8C582C822A425820D
:1004D300F582E5F03583F58322BB010789828A83A0
:1004E30002064D5005E9F802063BBBFE05E9F8029A
:1004F300065F89828A83020671BB011A89828A8315
:10050300D0F0D0E0F8D0E0F9D0E0FAD0E0FBE8C0DA
:10051300E0C0F00206565016E9F8D083D082D0E04E
:10052300F9D0E0FAD0E0FBC082C083020644BBFEF0
:1005330016E9F8D083D082D0E0F9D0E0FAD0E0FB1E
:10054300C082C08302066822BB010DE58229F582C1
:10055300E5833AF58302064D5007E92582F8020642
:100563003BBBFE07E92582F802065FE58229F58297
:10057300E5833AF583020671BB0120E58229F58202
:10058300E5833AF583D0F0D0E0F8D0E0F9D0E0FA93
:10059300D0E0FBE8C0E0C0F00206565018E925821F
:1005A300F8D083D082D0E0F9D0E0FAD0E0FBC0826B
:1005B300C083020644BBFE18E92582F8D083D082AB
:1005C300D0E0F9D0E0FAD0E0FBC082C08302066835
:1005D300228A838982E473EC8EF0A4CCC5F0CCCD5F
:1005E300F8EFA4CEC5F02DFDE43CFCE8A42EC8C56D
:1005F300F03DFDE43CFCEFA4FFE5F028FEE43DFD07
:10060300E43CFC22E6FC08E6FD08E6FE08E6FF22E1
:10061300E0FCA3E0FDA3E0FEA3E0FF22E2FC08E28E
:10062300FD08E2FE08E2FF22E493FC740193FD74EB
:100633000293FE740393FF22E6FB08E6FA08E6F949
:1006430022EBF608EAF608E9F622E0FBA3E0FAA3B8
:10065300E0F922EBF0A3EAF0A3E9F022E2FB08E2DF
:10066300FA08E2F922EBF208EAF208E9F222E4934B
:10067300FB740193FA740293F922C0E0C0F0C083C3
:10068300C082C0D075D000C000C001C002C003C08A
:1006930004C005C006C007E4FFFE900528F0C200B1
:1006A300F9A3C9F0A3F0A3E9F0050BC2AF90040AC4
:1006B300E0FBA3E0FAA3E0F91204DC9000081202C5
:1006C3006245F07015900006120262FD900008E585
:1006D300F08DF0120306D200800A90000874FFF533
:1006E300F012029A900444E070030207AE7F00EF19
:1006F300C394087480948040030207AEEF75F0033F
:10070300A42429F582E43404F583E0FBA3E0FAA3EF
:10071300E04A4B70030207AAEF75F003A42429F5FE
:1007230082E43404F583E0FBA3E0FAA3E0F91204C6
:10073300DC90000B74FFF5F012029A45F07068EF3D
:1007430075F003A42429F582E43404F583E0FBA3C4
:10075300E0FAA3E0F91204DC90000AE4120194EF3A
:1007630075F003A42429F582E43404F583E0FBA3A4
:10077300E0FAA3E0F9900428E0FD04F0ED75F0033E
:10078300A4240DF582E43404F583EBF0A3EAF0A38B
:10079300E9F0EF75F003A42429F582E43404F5832A
:1007A300E4F0A3F0A3F00E0F0206F2900444E0C3BA
:1007B3009EF0AF06D3EF9400748094805003300012
:1007C300597B017A0579281215B0900529EBF0A31E
:1007D300EAF0A3E9F090040AE0FBA3E0FAA3E0F94E
:1007E3001204DC900005120155FF900529E0FBA3DC
:1007F300E0FAA3E0F91204DC900005120155D39F3F
:10080300401890040AE0FBA3E0FAA3E0F91204DC29
:1008130090000AE4120194120B7AD50B02D2AFD0E6
:1008230007D006D005D004D003D002D001D000D029
:10083300D0D082D083D0F0D0E03290050DEBF0A37E
:10084300EAF0A3E9F0E4900521F0900510E0FBA3A2
:10085300E0FAA3E0F9C003C002C00190050DE0FB7C
:10086300A3E0FAA3E0F91204FC90050DE0FBA3E07A
:10087300FAA3E0F9900513E0FDE4900526F01211C8
:1008830072EF60037F0122900514E0FBA3E0FAA35B
:10089300E0F9C003C002C001900510E0FBA3E0FA39
:1008A300A3E0F990000212057B90051BA3E0FAA3D5
:1008B300E0AE02FF900510E0FBA3E0FAA3E0F9909D
:1008C300000DEE8FF012030690051EE090000F124C
:1008D300019490051AE090000512019490051FE021
:1008E300FEA3E0FF900006EE8FF0120306900008CF
:1008F300EE8FF012030690051BE0FBA3E475F001F5
:10090300120221A9F0FA740F120182900514A3A315
:10091300E0FF90051BE0FBA3E475F001120221A99F
:10092300F0FAEF120182900514A3E0FAEAFF9005B2
:100933001BE0FBA3E0FAA3E0F9EF120182E49005C8
:1009430021F0900521E0C3940B74809480501C9097
:10095300051BE0FBA3E475F00112020BA9F0FAE416
:10096300120182900521E004F080D7900517A3A31C
:10097300E0FF90051BE0FBA3E475F001120221A93F
:10098300F0FAEF120182900517E0FBA3E0FAA3E06F
:10099300F9FFAE02AD037C00780812045090051BEA
:1009A300E0FBA3E475F001120221A9F0FAEF1201B2
:1009B30082900517E0FBA3E0FAA3E0F9FFAE02ADD6
:1009C300037C00781012045090051BE0FBA3E0FAAF
:1009D300A3E0F9EF1201827F00229004F9EBF0A368
:1009E300EAF0A3E9F0A3EDF0E4900509F09004E741
:1009F300E0D39408748094804003020B73050BC208
:100A0300AFE4900509F0900428E0FF900509E0FEAB
:100A1300C39F5040900428E0940174809480403434
:100A2300EE75F003A4240DF582E43404F583E0FBB2
:100A3300A3E0FAA3E0F91204DC900005120155FFCC
:100A4300900503E0B507057F041217A2900509E09E
:100A530004F080B29004F9E0FBA3E0FAA3E0F97D8F
:100A6300107C0012124090050AEBF0A3EAF0A3E910
:100A7300F090050AE0FBA3E0FAA3E04A4B700302FF
:100A83000B6E90050AA3A3E0F9900510EBF0A3EA1F
:100A9300F0A3E9F09004FCE0900513F09004FDE06E
:100AA300F9A3E0FAA3E0900514C9F0A3EAF0A3E9DF
:100AB300F0900500E0F9A3E0FAA3E0900517C9F070
:100AC300A3EAF0A3E9F0900503E090051AF090057E
:100AD30004E0FEA3E0AA06F990051B7401F0A3EA63
:100AE300F0A3E9F0900506E090051EF0900507E0FD
:100AF300FFA3E090051FCFF0A3EFF09004F9E0FB14
:100B0300A3E0FAA3E0F912083D90050AE0FBA3E095
:100B1300FAA3E0F990000AE41201949004F9E0FBCF
:100B2300A3E0FAA3E0F9900428E0FF04F0EF75F0E6
:100B330003A4240DF582E43404F583EBF0A3EAF077
:100B4300A3E9F090040AE0FBA3E0FAA3E04A4B60B8
:100B530003120B7A9004E7E004F0D50B02D2AF90B6
:100B6300050AE0FBA3E0FAA3E0F922D50B02D2AF1A
:100B73007B007A00790022050BC2AF90040AE0FBE8
:100B8300A3E0FAA3E04A4B7003020C1FC0E0C0F0DD
:100B9300C083C082C0D075D000C000C004C005C0EF
:100BA30006C007C001C002C003C08190040AE0FB75
:100BB300A3E0FAA3E0F91204DC90000D12026285AF
:100BC300F008F5097F22750A22C3E581942214787F
:100BD30021F6E6850982850883F090040AE0FBA3E9
:100BE300E0FAA3E0F91204DC90000F120155FF852F
:100BF3000982850883E0D39F40057F021217A278FC
:100C030021E6166017050AA80AE6FF0509E509703B
:100C1300020508F582850883EFF080E390040AE07B
:100C2300FBA3E0FAA3E0F91213097B017A05792704
:100C33001215B090040AEBF0A3EAF0A3E9F0120452
:100C4300DC90000A7401120194900428E014F075FA
:100C5300F003A4240DF582E43404F583E0FBA3E060
:100C6300FAA3E0F9900527E075F003A4240DF582BB
:100C7300E43404F583EBF0A3EAF0A3E9F09004284D
:100C8300E075F003A4240DF582E43404F583E4F065
:100C9300A3F0A3F090040AE0FBA3E0FAA3E0F912A7
:100CA30004DC90000D12026285F008F509750A2232
:100CB300F582850883E07821F67821E6166015052C
:100CC30009E50970020508F582850883E0050AA88D
:100CD3000AF680E5850A81D003D002D001D007D07F
:100CE30006D005D004D000D0D0D082D083D0F0D0AD
:100CF300E0D50B02D2AF229005327401F0C2C0904E
:100D030004EC74FFF0A37417F0A374ADF0A37401A3
:100D1300F0A37405F0A37432F0A37401F0A3F0A35D
:100D23007405F0A37442F0A37440F0A3E4F0A37439
:100D330064F07B017A0579337D011213C490053386
:100D4300EBF0A3EAF0A3E9F09004EC74FFF0A374D2
:100D530017F0A374B8F0A3E4F0A3F0A3F0A3740214
:100D6300F07B01A314F0A37405F0A37444F0A374FF
:100D730040F0A3E4F0A37464F07A0579367D02129F
:100D830013C4900536EBF0A3EAF0A3E9F09004EC6A
:100D930074FFF0A37417F0A374C3F0A3E4F0A3F0FB
:100DA300A3F0A37403F0A37401F0A37405F0A37478
:100DB30046F0A37440F0A3E4F0A37464F07B017ADB
:100DC3000579397D031213C4900539EBF0A3EAF0DA
:100DD300A3E9F09004EC74FFF0A37417F0A374CEAE
:100DE300F0A3E4F0A3F0A3F0A37404F0A37401F060
:100DF300A37405F0A37448F0A37440F0A3E4F0A334
:100E03007464F07B017A05793C7D041213C4900568
:100E13003CEBF0A3EAF0A3E9F09004EC74FFF0A339
:100E23007417F0A374D9F0A3E4F0A3F0A3F0A374B0
:100E330005F0A37401F0A37405F0A3744AF0A3743E
:100E430040F0A3E4F0A37464F07B017A05793F7D5D
:100E5300051213C490053FEBF0A3EAF0A3E9F022D7
:100E63009004F0EBF0A3EAF0A3E9F0121513900459
:100E7300F3120493C28C9004F0E0FBA3E0FAA3E026
:100E8300F990000112015525E025E0FFE58954FBA7
:100E93004FF589900002120155FFE58954FC4FF587
:100EA300899000031201557F0070027F01EFC43364
:100EB30033335480FFE58E547F4FF58E9004F0E07A
:100EC300FBA3E0FAA3E0F9900005120262AEF0FB87
:100ED300AA06E4F9F87F407E427D0FFC1203BEC0F0
:100EE30004C005C006C007E58E7F0020E7027F012E
:100EF300EF75F00BA42401FFE435F0FE3395E0FD1C
:100F0300FCD003D002D001D000120333A804A905FA
:100F1300AA06AB079004F3E0FCA3E0FDA3E0FEA365
:100F2300E0FF1203BEC3E49FFFE49EFE9004F0E0E3
:100F3300FBA3E0FAA3E0F9900005EE8FF01203069D
:100F430090000212015564029004F07014E0FBA3B8
:100F5300E0FAA3E0F9900005120262F58AF58C80AD
:100F630015E0FBA3E0FAA3E0F9900005120262AEDC
:100F7300F0F58AEEF58C9004F0E0FBA3E0FAA3E031
:100F8300F9900004120155FFE58F54FE4FF58F9041
:100F9300000712015524FF928C7F002243BA80126E
:100FA300013CFF700302106690FE02E054FEF090D5
:100FB300FE04E0547EF090FE03E0541EF090FE0623
:100FC300E0543EF0EF24FE602E14601C14600E24E7
:100FD30003703190FE00E4F090FE02802390FE0047
:100FE3007401F090FE03800990FE007402F090FEFD
:100FF30006E044C0F0800D90FE007403F090FE0400
:10100300E04480F090FE02E020E01490FE04E02033
:10101300E00D90FE03E020E00690FE06E060E59020
:10102300FE03C083C082E0FF900007120155C45441
:10103300F0FEEF4ED082D083F0900003120155F5FD
:101043009D900001120155F59F900002120155F584
:101053009E900004120155FF90FE01700404F0807D
:1010630002EFF090FE05C083C082E0FF90000512FE
:101073000155FEEF4ED082D083F090FE05C083C0B1
:1010830082E0FF900006120155C43333335480FECF
:10109300EF4ED082D083F053BA7F7F0022E49004D6
:1010A300E8F07B017A0479E81215B090040AEBF0BA
:1010B300A3EAF0A3E9F01204DC90000A7401120120
:1010C30094900428E014F075F003A4240DF582E451
:1010D3003404F583E0FBA3E0FAA3E0F99004E8E02D
:1010E30075F003A4240DF582E43404F583EBF0A337
:1010F300EAF0A3E9F0900428E075F003A4240DF5C9
:1011030082E43404F583E4F0A3F0A3F090040AE04E
:10111300FBA3E0FAA3E0F91204DC90000D120262D3
:1011230085F008F509750A22F582850883E07821A0
:10113300F67821E61660150509E50970020508F53C
:1011430082850883E0050AA80AF680E5850A81D02E
:1011530003D002D001D007D006D005D004D000D0F0
:10116300D0D082D083D0F0D0E0D50B02D2AF229082
:101173000522EBF0A3EAF0A3E9F0E4FF050BC2AF0D
:10118300900526E0FE75F019A42464F582E4340585
:10119300F583E0FCEFC39C502CEE75F019A4244CAE
:1011A300F582E43405F58375F003EF1204D0E0FB18
:1011B300A3E0FAA3E0F91204DC12013CB505037FB6
:1011C30001220F80BBAF05900522E0FBA3E0FAA349
:1011D300E0F91204DCEF120182900526E0FF90058E
:1011E30022E0FBA3E0FAA3E0F91204DC900001EF94
:1011F300120194900522E0FBA3E0FAA3E0F9EF7556
:10120300F019A4244CF582E43405F583C083C0822D
:10121300EF75F019A42464F582E43405F583E0FF47
:1012230004F0D082D08375F003EF1204D0EBF0A367
:10123300EAF0A3E9F0D50B02D2AF7F002290050DAF
:10124300EBF0A3EAF0A3E9F090050DE0FBA3E0FACD
:10125300A3E0F9050BC2AFC3EC940440030212FDF3
:1012630090000474FF75F0F812020B90050DE0FB7B
:10127300A3E0FAA3E0F9C003C002C001900003E0B9
:10128300FBA3E0FAA3E0F91204FC900000E0FBA347
:10129300E0FAA3E0F9C003C002C001A3E0FBA3E0AE
:1012A300FAA3E0F990000312057B900003E0FBA38F
:1012B300E0FAA3E0F9900006EC8DF012030690002B
:1012C30000E0FBA3E0FAA3E0F9900001EC8DF0123B
:1012D300020BED2408FFE43CFEC3900009E09FF0FD
:1012E300900008E09EF0900007E004F07006900084
:1012F30006E004F0D50B02D2AF22D50B02D2AF7BAE
:10130300007A0079002290052FEBF0A3EAF0A3E91D
:10131300F0E4FF1204DC90000A12015524FE602A57
:10132300146075240360030213C390052FE0FBA32D
:10133300E0FAA3E0F9900428E0FF04F0EF75F0036E
:10134300A4240DF582E43404806CEFC39409748003
:101353009480506CEF75F003A42429F582E43404DF
:10136300F583E0FBA3E0FAA3E04A4B702890052F36
:10137300E0FBA3E0FAA3E0F9EF75F003A42429F559
:1013830082E43404F583EBF0A3EAF0A3E9F09004DC
:1013930044E004F0220F80B290052FE0FBA3E0FAB3
:1013A300A3E0F9900460E0FF04F0EF75F003A424D8
:1013B30045F582E43404F583EBF0A3EAF0A3E9F006
:1013C300229004E8EBF0A3EAF0A3E9F0A3EDF09098
:1013D30004F3E0FBA3E0FAA3E0F9120237AAF0F961
:1013E3007B019004F6E0FD7C00121240AE02AF01D7
:1013F3009004F3E0FBA3E0FAA3E0F9EE8FF012020E
:10140300E79004EBE0FDA3E0F9A3E0FAA3E0900486
:10141300FDC9F0A3EAF0A3E9F09004EFE0F9A3E03B
:10142300FAA3E0900500C9F0A3EAF0A3E9F0900461
:10143300F2E0900503F09004F3E0FBA3E0FAA3E0ED
:10144300F9120237FF900504E5F0F0A3EFF09004E2
:10145300F6E0900506F09004F7E0FFA3E09005079F
:10146300CFF0A3EFF09004E8E0FBA3E0FAA3E0F9E8
:101473000209DD78EDE4F6D8FD9000007FFF7E1DC4
:10148300E4F0A3DFFCDEFA7581A11216270214CE65
:10149300020003E493A3F8E493A34003F68001F26C
:1014A30008DFF48029E493A3F85407240CC8C3335A
:1014B300C4540F4420C8834004F456800146F6DF29
:1014C300E4800B010204081020408090000EE47EAB
:1014D300019360BCA3FF543F30E509541FFEE4931E
:1014E300A360010ECF54C025E060A840B8E493A3E5
:1014F300FAE493A3F8E493A3C8C582C8CAC583CA10
:10150300F0A3C8C582C8CAC583CADFE9DEE780BEC7
:10151300E59D603178FAE6FBAF9FC3EF9BFFE49450
:1015230000FEE49400FDE49400FC7BE07A2879015A
:101533007800120333E42FFFEE3451FEED3425FD22
:10154300EC3402802E78FBE6FBAF9FC3EF9BFFE4F6
:101553009400FEE49400FDE49400FCE47B807ABBF9
:10156300F9F8120333E42FFFEE3436FEED346EFD4B
:10157300EC3401FC9004F71204939004F7E0FCA30D
:10158300E0FDA3E0FEA3E0FFC00790FE01E0FBE463
:10159300FAF9F8D0071203BE9004F71204939004EB
:1015A300F7E0FCA3E0FDA3E0FEA3E0FF2290052CFF
:1015B300EBF0A3EAF0A3E9F0E4FFFE12018290044A
:1015C30028E0FDEFC39D5038EF75F003A4240DF51B
:1015D30082E43404F583E0FBA3E0FAA3E0F9120408
:1015E300DC900005120155FDD39E4011AE05900518
:1015F3002CE0FBA3E0FAA3E0F9EF1201820F80BE17
:1016030090052CE0FBA3E0FAA3E0F912013C75F08E
:1016130003A4240DF582E43404F583E0FBA3E0FA8C
:10162300A3E0F922E4F50B900566F01217E4050B2D
:10163300C2AF1216EA1200079004FD74FFF0A37400
:1016430017F0A37480F0A3E4F0A3F0A3F0A3F0A336
:101653007404F0A37467F0A37480F074FFA3F0A381
:10166300F07B017A047964E4FD1209DD900464EBF4
:10167300F0A3EAF0A3E9F0120CFA1210A0E4FEFFC3
:101683002278E87C047D017BFF7A1779F57E007F61
:1016930008120116E49004EAF0A304F09004ED7438
:1016A30027F0A37410F0A37401F0FB7A0479E81215
:1016B3000E637D017F03021760050BC2AF90040A1E
:1016C300E0FBA3E0FAA3E0F91204DC90000BEE8F39
:1016D300F012030690000A7402120194D50B02D291
:1016E300AF120B7A7F0022E4900006F0A3F0A374FC
:1016F30004F0A3E4F07B0190000004F0A37400F075
:10170300A3740AF0A3EBF0A37404F0A3740AF07FAC
:10171300002278E87C047D017BFF7A1779ED7E0057
:101723007F08120116E49004E8F09004EDF0A3049E
:10173300F0FB7A0479E8020F9FC0E0C083C082E522
:101743009A30E003539AFEE59A30E10A539AFD90EA
:101753000565E054FDF0D082D083D0E032ED24FF64
:1017630092A9EF5402FEE5B754FD4EF5B7EF5401CD
:1017730025E0FFE5B854FD4FF5B87F0022900461E2
:10178300E0FBA3E0FAA3E0F9EA494B60F01205D4C9
:1017930080EB75CB0075CCFF75B30075B4FF2205E4
:1017A3000BC2AF900566EFF080FEB2E97F327E0098
:1017B3001216BC80F5B2EA7F327E001216BC80F5A9
:1017C300B2EB7F327E001216BC80F5B2EC7F327E24
:1017D300001216BC80F5B2ED7F327E001216BC807B
:1017E300F512171512179502168400000000000069
:1017F30000000000000000000000000000000000E6
:06180300000000000000DF
:00000001FF
